{
  "contractName": "HelloTokenCrowdSale",
  "abi": [
    {
      "constant": true,
      "inputs": [],
      "name": "rate",
      "outputs": [
        {
          "name": "",
          "type": "uint256"
        }
      ],
      "payable": false,
      "stateMutability": "view",
      "type": "function"
    },
    {
      "constant": true,
      "inputs": [],
      "name": "endTime",
      "outputs": [
        {
          "name": "",
          "type": "uint256"
        }
      ],
      "payable": false,
      "stateMutability": "view",
      "type": "function"
    },
    {
      "constant": true,
      "inputs": [],
      "name": "cap",
      "outputs": [
        {
          "name": "",
          "type": "uint256"
        }
      ],
      "payable": false,
      "stateMutability": "view",
      "type": "function"
    },
    {
      "constant": true,
      "inputs": [],
      "name": "goal",
      "outputs": [
        {
          "name": "",
          "type": "uint256"
        }
      ],
      "payable": false,
      "stateMutability": "view",
      "type": "function"
    },
    {
      "constant": true,
      "inputs": [],
      "name": "weiRaised",
      "outputs": [
        {
          "name": "",
          "type": "uint256"
        }
      ],
      "payable": false,
      "stateMutability": "view",
      "type": "function"
    },
    {
      "constant": true,
      "inputs": [],
      "name": "isRoundActive",
      "outputs": [
        {
          "name": "",
          "type": "bool"
        }
      ],
      "payable": false,
      "stateMutability": "view",
      "type": "function"
    },
    {
      "constant": false,
      "inputs": [],
      "name": "finalize",
      "outputs": [],
      "payable": false,
      "stateMutability": "nonpayable",
      "type": "function"
    },
    {
      "constant": true,
      "inputs": [],
      "name": "tokensForEcosystem",
      "outputs": [
        {
          "name": "",
          "type": "uint256"
        }
      ],
      "payable": false,
      "stateMutability": "view",
      "type": "function"
    },
    {
      "constant": true,
      "inputs": [],
      "name": "wallet",
      "outputs": [
        {
          "name": "",
          "type": "address"
        }
      ],
      "payable": false,
      "stateMutability": "view",
      "type": "function"
    },
    {
      "constant": true,
      "inputs": [],
      "name": "totalTokensForSale",
      "outputs": [
        {
          "name": "",
          "type": "uint256"
        }
      ],
      "payable": false,
      "stateMutability": "view",
      "type": "function"
    },
    {
      "constant": true,
      "inputs": [],
      "name": "startTime",
      "outputs": [
        {
          "name": "",
          "type": "uint256"
        }
      ],
      "payable": false,
      "stateMutability": "view",
      "type": "function"
    },
    {
      "constant": true,
      "inputs": [],
      "name": "goalReached",
      "outputs": [
        {
          "name": "",
          "type": "bool"
        }
      ],
      "payable": false,
      "stateMutability": "view",
      "type": "function"
    },
    {
      "constant": true,
      "inputs": [],
      "name": "currentRound",
      "outputs": [
        {
          "name": "",
          "type": "uint256"
        }
      ],
      "payable": false,
      "stateMutability": "view",
      "type": "function"
    },
    {
      "constant": true,
      "inputs": [],
      "name": "totalRounds",
      "outputs": [
        {
          "name": "",
          "type": "uint256"
        }
      ],
      "payable": false,
      "stateMutability": "view",
      "type": "function"
    },
    {
      "constant": true,
      "inputs": [],
      "name": "isFinalized",
      "outputs": [
        {
          "name": "",
          "type": "bool"
        }
      ],
      "payable": false,
      "stateMutability": "view",
      "type": "function"
    },
    {
      "constant": true,
      "inputs": [],
      "name": "owner",
      "outputs": [
        {
          "name": "",
          "type": "address"
        }
      ],
      "payable": false,
      "stateMutability": "view",
      "type": "function"
    },
    {
      "constant": true,
      "inputs": [],
      "name": "softCap",
      "outputs": [
        {
          "name": "",
          "type": "uint256"
        }
      ],
      "payable": false,
      "stateMutability": "view",
      "type": "function"
    },
    {
      "constant": false,
      "inputs": [],
      "name": "claimRefund",
      "outputs": [],
      "payable": false,
      "stateMutability": "nonpayable",
      "type": "function"
    },
    {
      "constant": true,
      "inputs": [],
      "name": "tokensForALB",
      "outputs": [
        {
          "name": "",
          "type": "uint256"
        }
      ],
      "payable": false,
      "stateMutability": "view",
      "type": "function"
    },
    {
      "constant": true,
      "inputs": [
        {
          "name": "",
          "type": "uint256"
        }
      ],
      "name": "sender",
      "outputs": [
        {
          "name": "",
          "type": "address"
        }
      ],
      "payable": false,
      "stateMutability": "view",
      "type": "function"
    },
    {
      "constant": true,
      "inputs": [],
      "name": "maxTokens",
      "outputs": [
        {
          "name": "",
          "type": "uint256"
        }
      ],
      "payable": false,
      "stateMutability": "view",
      "type": "function"
    },
    {
      "constant": false,
      "inputs": [
        {
          "name": "beneficiary",
          "type": "address"
        }
      ],
      "name": "buyTokens",
      "outputs": [],
      "payable": true,
      "stateMutability": "payable",
      "type": "function"
    },
    {
      "constant": false,
      "inputs": [
        {
          "name": "newOwner",
          "type": "address"
        }
      ],
      "name": "transferOwnership",
      "outputs": [],
      "payable": false,
      "stateMutability": "nonpayable",
      "type": "function"
    },
    {
      "constant": true,
      "inputs": [],
      "name": "isSale",
      "outputs": [
        {
          "name": "",
          "type": "bool"
        }
      ],
      "payable": false,
      "stateMutability": "view",
      "type": "function"
    },
    {
      "constant": true,
      "inputs": [],
      "name": "hardCap",
      "outputs": [
        {
          "name": "",
          "type": "uint256"
        }
      ],
      "payable": false,
      "stateMutability": "view",
      "type": "function"
    },
    {
      "constant": true,
      "inputs": [],
      "name": "vault",
      "outputs": [
        {
          "name": "",
          "type": "address"
        }
      ],
      "payable": false,
      "stateMutability": "view",
      "type": "function"
    },
    {
      "constant": true,
      "inputs": [],
      "name": "token",
      "outputs": [
        {
          "name": "",
          "type": "address"
        }
      ],
      "payable": false,
      "stateMutability": "view",
      "type": "function"
    },
    {
      "constant": true,
      "inputs": [],
      "name": "tokensForTeam",
      "outputs": [
        {
          "name": "",
          "type": "uint256"
        }
      ],
      "payable": false,
      "stateMutability": "view",
      "type": "function"
    },
    {
      "inputs": [
        {
          "name": "_startTime",
          "type": "uint256"
        },
        {
          "name": "_endTime",
          "type": "uint256"
        },
        {
          "name": "_rate",
          "type": "uint256"
        },
        {
          "name": "_wallet",
          "type": "address"
        },
        {
          "name": "_goal",
          "type": "uint256"
        },
        {
          "name": "_cap",
          "type": "uint256"
        },
        {
          "name": "_totalRounds",
          "type": "uint256"
        }
      ],
      "payable": false,
      "stateMutability": "nonpayable",
      "type": "constructor"
    },
    {
      "payable": true,
      "stateMutability": "payable",
      "type": "fallback"
    },
    {
      "anonymous": false,
      "inputs": [
        {
          "indexed": false,
          "name": "text",
          "type": "string"
        }
      ],
      "name": "EthTransferred",
      "type": "event"
    },
    {
      "anonymous": false,
      "inputs": [
        {
          "indexed": false,
          "name": "text",
          "type": "string"
        }
      ],
      "name": "EthRefunded",
      "type": "event"
    },
    {
      "anonymous": false,
      "inputs": [],
      "name": "Finalized",
      "type": "event"
    },
    {
      "anonymous": false,
      "inputs": [
        {
          "indexed": true,
          "name": "previousOwner",
          "type": "address"
        },
        {
          "indexed": true,
          "name": "newOwner",
          "type": "address"
        }
      ],
      "name": "OwnershipTransferred",
      "type": "event"
    },
    {
      "anonymous": false,
      "inputs": [
        {
          "indexed": true,
          "name": "purchaser",
          "type": "address"
        },
        {
          "indexed": true,
          "name": "beneficiary",
          "type": "address"
        },
        {
          "indexed": false,
          "name": "value",
          "type": "uint256"
        },
        {
          "indexed": false,
          "name": "amount",
          "type": "uint256"
        }
      ],
      "name": "TokenPurchase",
      "type": "event"
    },
    {
      "constant": true,
      "inputs": [],
      "name": "getCurrentRound",
      "outputs": [
        {
          "name": "",
          "type": "uint256"
        }
      ],
      "payable": false,
      "stateMutability": "view",
      "type": "function"
    },
    {
      "constant": false,
      "inputs": [
        {
          "name": "hardcap",
          "type": "uint256"
        }
      ],
      "name": "startRound",
      "outputs": [
        {
          "name": "",
          "type": "uint256"
        }
      ],
      "payable": false,
      "stateMutability": "nonpayable",
      "type": "function"
    },
    {
      "constant": true,
      "inputs": [
        {
          "name": "a",
          "type": "uint256"
        }
      ],
      "name": "displayRoundInfo",
      "outputs": [
        {
          "name": "",
          "type": "uint256"
        },
        {
          "name": "",
          "type": "uint256"
        },
        {
          "name": "",
          "type": "uint256"
        },
        {
          "name": "",
          "type": "uint256"
        },
        {
          "name": "",
          "type": "uint256"
        }
      ],
      "payable": false,
      "stateMutability": "view",
      "type": "function"
    },
    {
      "constant": false,
      "inputs": [],
      "name": "endRoundOwner",
      "outputs": [
        {
          "name": "",
          "type": "bool"
        }
      ],
      "payable": false,
      "stateMutability": "nonpayable",
      "type": "function"
    },
    {
      "constant": true,
      "inputs": [],
      "name": "currentSatus",
      "outputs": [
        {
          "name": "",
          "type": "bool"
        }
      ],
      "payable": false,
      "stateMutability": "view",
      "type": "function"
    },
    {
      "constant": false,
      "inputs": [
        {
          "name": "sendamountNsended",
          "type": "uint256"
        }
      ],
      "name": "hardcapAchieved",
      "outputs": [
        {
          "name": "",
          "type": "bool"
        }
      ],
      "payable": false,
      "stateMutability": "nonpayable",
      "type": "function"
    },
    {
      "constant": false,
      "inputs": [
        {
          "name": "sendedTotalAmount",
          "type": "uint256"
        }
      ],
      "name": "endICO",
      "outputs": [
        {
          "name": "",
          "type": "bool"
        }
      ],
      "payable": false,
      "stateMutability": "nonpayable",
      "type": "function"
    },
    {
      "constant": true,
      "inputs": [],
      "name": "showRecords",
      "outputs": [
        {
          "name": "",
          "type": "uint256"
        },
        {
          "name": "",
          "type": "uint256"
        },
        {
          "name": "",
          "type": "bool"
        },
        {
          "name": "",
          "type": "address[]"
        }
      ],
      "payable": false,
      "stateMutability": "view",
      "type": "function"
    },
    {
      "constant": true,
      "inputs": [],
      "name": "viewContractBalance",
      "outputs": [
        {
          "name": "",
          "type": "uint256"
        },
        {
          "name": "",
          "type": "uint256"
        }
      ],
      "payable": false,
      "stateMutability": "view",
      "type": "function"
    },
    {
      "constant": false,
      "inputs": [
        {
          "name": "amount",
          "type": "uint256"
        }
      ],
      "name": "withdrawEther",
      "outputs": [],
      "payable": false,
      "stateMutability": "nonpayable",
      "type": "function"
    },
    {
      "constant": false,
      "inputs": [
        {
          "name": "_teamFund",
          "type": "address"
        },
        {
          "name": "_ALBFund",
          "type": "address"
        }
      ],
      "name": "finish",
      "outputs": [],
      "payable": false,
      "stateMutability": "nonpayable",
      "type": "function"
    },
    {
      "constant": true,
      "inputs": [],
      "name": "hasEnded",
      "outputs": [
        {
          "name": "",
          "type": "bool"
        }
      ],
      "payable": false,
      "stateMutability": "view",
      "type": "function"
    }
  ],
  "bytecode": "0x60806040526007805460a060020a60ff02191690556000600e8190556010556b01497b8a779bd0c6960000006014556b012debc1a5da2ece8d00000060158190556016556a0b2ef8ab2961fd620000006017556a1060d026983ffaa70000006018553480156200006e57600080fd5b5060405160e08062002b5e83398101604090815281516020830151918301516060840151608085015160a086015160c090960151939592939192909182828888888883831015620000be57600080fd5b60008211620000cc57600080fd5b600160a060020a0381161515620000e257600080fd5b620000f564010000000062000211810204565b60008054600160a060020a0319908116600160a060020a039384161782556001969096556002949094556004929092556003805490941691161790915581116200013e57600080fd5b60065560078054600160a060020a03191633179055600081116200016157600080fd5b600354600160a060020a03166200017762000240565b600160a060020a03909116815260405190819003602001906000f080158015620001a5573d6000803e3d6000fd5b5060098054600160a060020a031916600160a060020a039290921691909117905560085581831115620001d757600080fd5b600f556011805460ff19166001179055600e93909355601292909255506013555050600a8054600160a060020a0319163317905562000262565b60006200021d62000251565b604051809103906000f0801580156200023a573d6000803e3d6000fd5b50905090565b6040516105fe806200180783390190565b604051610d598062001e0583390190565b61159580620002726000396000f3006080604052600436106101d45763ffffffff60e060020a6000350416632c4e722e811461043f5780633197cbb614610466578063355274ea1461047b5780633bed33ce1461049057806340193883146104aa5780634042b66f146104bf57806345945a45146104d45780634bb278f3146104fd5780634c4cfc3b14610512578063521eb273146105275780635c8de34c146105585780635fc3d52d1461058657806360219c7b1461059e5780636427bf2b146105b357806378e97925146105c85780637d3d6522146105dd5780638a19c8bc146105f25780638a568299146106075780638d4e40831461061c5780638da5cb5b14610631578063906a26e014610646578063a32bf5971461065b578063b5545a3c14610670578063b732ca6914610685578063c1ac56d01461069a578063c558a383146106b2578063dd9bc47e146106ca578063e0635521146106f1578063e831574214610734578063ec8ac4d814610749578063ecb70fb71461075d578063f2fde38b14610772578063f5a332f614610793578063f8c1c186146107ab578063fa75b168146107c0578063fb86a404146107d5578063fbfa77cf146107ea578063fc0c546a146107ff578063fc25f3ca14610814578063fde83a3414610896575b6000806101ec600e54346108ab90919063ffffffff16565b60115490925060ff61010090910416151560011461020957600080fd5b60115460ff16151560011461021d57600080fd5b6010546000908152600d602052604090206003015461023d9083016108e1565b1561024757600080fd5b670de0b6b3a764000034049050601554826000809054906101000a9004600160a060020a0316600160a060020a03166318160ddd6040518163ffffffff1660e060020a028152600401602060405180830381600087803b1580156102aa57600080fd5b505af11580156102be573d6000803e3d6000fd5b505050506040513d60208110156102d457600080fd5b505101111561036f5760405133903480156108fc02916000818181858888f19350505050158015610309573d6000803e3d6000fd5b506040805160208082526010908201527f50726549434f204c696d697420486974000000000000000000000000000000008183015290517fc0283f9c45b2118c7ec26e4f4bf06fc486f94a186fb38dc5dff372d9cb709d379181900360600190a161043b565b61037833610915565b601080546000908152600d60209081526040808320600390810180548801905593548352808320600490810180543490810190915533808652600b90945291842080548701815560028082018054909401909355600181810180548a019055958101805460ff1916905591546228de8001910155600c805493840181559091527fdf6966c971051c3d54ec59162606531493a51404a002842f56009d7e5cf4a8c7909101805473ffffffffffffffffffffffffffffffffffffffff191690911790555b5050005b34801561044b57600080fd5b50610454610a63565b60408051918252519081900360200190f35b34801561047257600080fd5b50610454610a69565b34801561048757600080fd5b50610454610a6f565b34801561049c57600080fd5b506104a8600435610a75565b005b3480156104b657600080fd5b50610454610b27565b3480156104cb57600080fd5b50610454610b2d565b3480156104e057600080fd5b506104e9610b33565b604080519115158252519081900360200190f35b34801561050957600080fd5b506104a8610b41565b34801561051e57600080fd5b50610454610bd9565b34801561053357600080fd5b5061053c610bdf565b60408051600160a060020a039092168252519081900360200190f35b34801561056457600080fd5b5061056d610bee565b6040805192835260208301919091528051918290030190f35b34801561059257600080fd5b50610454600435610c22565b3480156105aa57600080fd5b50610454610cdc565b3480156105bf57600080fd5b506104e9610ce2565b3480156105d457600080fd5b50610454610d40565b3480156105e957600080fd5b506104e9610d46565b3480156105fe57600080fd5b50610454610d51565b34801561061357600080fd5b50610454610d57565b34801561062857600080fd5b506104e9610d5d565b34801561063d57600080fd5b5061053c610d6d565b34801561065257600080fd5b50610454610d7c565b34801561066757600080fd5b50610454610d82565b34801561067c57600080fd5b506104a8610d88565b34801561069157600080fd5b50610454610e31565b3480156106a657600080fd5b5061053c600435610e37565b3480156106be57600080fd5b506104e96004356108e1565b3480156106d657600080fd5b506104a8600160a060020a0360043581169060243516610e5f565b3480156106fd57600080fd5b50610709600435611087565b6040805195865260208601949094528484019290925260608401526080830152519081900360a00190f35b34801561074057600080fd5b506104546110dd565b6104a8600160a060020a0360043516610915565b34801561076957600080fd5b506104e96110e3565b34801561077e57600080fd5b506104a8600160a060020a03600435166110e8565b34801561079f57600080fd5b506104e960043561117d565b3480156107b757600080fd5b506104e96111d8565b3480156107cc57600080fd5b506104e96111e1565b3480156107e157600080fd5b50610454611219565b3480156107f657600080fd5b5061053c61121f565b34801561080b57600080fd5b5061053c61122e565b34801561082057600080fd5b5061082961123d565b604051808581526020018481526020018315151515815260200180602001828103825283818151815260200191508051906020019060200280838360005b8381101561087f578181015183820152602001610867565b505050509050019550505050505060405180910390f35b3480156108a257600080fd5b506104546112cf565b6000808315156108be57600091506108da565b508282028284828115156108ce57fe5b04146108d657fe5b8091505b5092915050565b6010546000908152600d602052604081205482111561090c576109026112d5565b5060019050610910565b5060005b919050565b600080600160a060020a038316151561092d57600080fd5b6109356112f2565b151561094057600080fd5b60045434925061095790839063ffffffff6108ab16565b60055490915061096d908363ffffffff61132816565b60055560008054604080517f40c10f19000000000000000000000000000000000000000000000000000000008152600160a060020a03878116600483015260248201869052915191909216926340c10f1992604480820193602093909283900390910190829087803b1580156109e257600080fd5b505af11580156109f6573d6000803e3d6000fd5b505050506040513d6020811015610a0c57600080fd5b505060408051838152602081018390528151600160a060020a0386169233927f623b3804fa71d67900d064613da8f94b9617215ee90799290593e1745087ad18929081900390910190a3610a5e611337565b505050565b600e5481565b60025481565b60065481565b600754600090600160a060020a03163314610a8f57600080fd5b50600a54604051670de0b6b3a7640000830491600160a060020a0316906108fc8415029084906000818181858888f19350505050158015610ad4573d6000803e3d6000fd5b50600a8054600160a060020a039081166000908152600b6020526040808220600201805496909603909555825482168152848120805494909403909355905416815220600301805460ff19166001179055565b60085481565b60055481565b601154610100900460ff1681565b600754600160a060020a03163314610b5857600080fd5b60075460a060020a900460ff1615610b6f57600080fd5b610b776110e3565b1515610b8257600080fd5b610b8a6113c7565b6040517f6823b073d48d6e3a7d385eeb601452d680e74bb46afe3255a7d778f3a9b1768190600090a16007805474ff0000000000000000000000000000000000000000191660a060020a179055565b60155481565b600354600160a060020a031681565b60075460009081908190600160a060020a03163314610c0c57600080fd5b670de0b6b3a76400003031049330319350915050565b600754600090600160a060020a03163314610c3c57600080fd5b60115460ff161515600114610c5057600080fd5b600f5460105410610c6057600080fd5b601154610100900460ff1615610c7557600080fd5b506010805460019081018083556011805461ff0019166101001790556000908152600d602052604080822085905583548252808220429301929092558254815281812060020181905582548152818120600301819055825481529081206004015554919050565b60165481565b600754600090600160a060020a03163314610cfc57600080fd5b60115460ff610100909104161515600114610d1657600080fd5b506010546000908152600d60205260409020426002909101556011805461ff001916905560015b90565b60015481565b600854600554101590565b60105481565b600f5481565b60075460a060020a900460ff1681565b600754600160a060020a031681565b60125481565b60105490565b60075460a060020a900460ff161515610da057600080fd5b610da8610d46565b15610db257600080fd5b600954604080517ffa89401a0000000000000000000000000000000000000000000000000000000081523360048201529051600160a060020a039092169163fa89401a9160248082019260009290919082900301818387803b158015610e1757600080fd5b505af1158015610e2b573d6000803e3d6000fd5b50505050565b60185481565b600c805482908110610e4557fe5b600091825260209091200154600160a060020a0316905081565b6007546000908190600160a060020a03163314610e7b57600080fd5b60075460a060020a900460ff1615610e9257600080fd5b6000809054906101000a9004600160a060020a0316600160a060020a03166318160ddd6040518163ffffffff1660e060020a028152600401602060405180830381600087803b158015610ee457600080fd5b505af1158015610ef8573d6000803e3d6000fd5b505050506040513d6020811015610f0e57600080fd5b50516014549092508210610f2157600080fd5b816016540390506000811115610f3a5760158054820190555b60008054601754604080517f40c10f19000000000000000000000000000000000000000000000000000000008152600160a060020a0389811660048301526024820193909352905191909216926340c10f1992604480820193602093909283900390910190829087803b158015610fb057600080fd5b505af1158015610fc4573d6000803e3d6000fd5b505050506040513d6020811015610fda57600080fd5b505060008054601854604080517f40c10f19000000000000000000000000000000000000000000000000000000008152600160a060020a0388811660048301526024820193909352905191909216926340c10f1992604480820193602093909283900390910190829087803b15801561105257600080fd5b505af1158015611066573d6000803e3d6000fd5b505050506040513d602081101561107c57600080fd5b50610e2b9050610b41565b6007546000908190819081908190600160a060020a031633146110a957600080fd5b50505060009283525050600d6020526040902080546001820154600283015460038401546004909401549294919390929091565b60145481565b600190565b600754600160a060020a031633146110ff57600080fd5b600160a060020a038116151561111457600080fd5b600754604051600160a060020a038084169216907f8be0079c531659141344cd1fd0a4f28419497f9722a3daafe3b4186f6b6457e090600090a36007805473ffffffffffffffffffffffffffffffffffffffff1916600160a060020a0392909216919091179055565b600754600090600160a060020a0316331461119757600080fd5b601154610100900460ff16156111ac57600080fd5b600f54601054146111bc57600080fd5b6011805460ff1916905560125482111561090c57506001610910565b60115460ff1681565b600754600090600160a060020a031633146111fb57600080fd5b60115460ff61010090910416151560011415610d3d57506001610d3d565b60135481565b600954600160a060020a031681565b600054600160a060020a031681565b336000908152600b6020908152604080832080546001820154600390920154600c8054855181880281018801909652808652879687966060969460ff16939290918391908301828280156112ba57602002820191906000526020600020905b8154600160a060020a0316815260019091019060200180831161129c575b50505050509050935093509350935090919293565b60175481565b60115460009060ff610100909104161515600114610d1657600080fd5b60008060065461130d3460055461132890919063ffffffff16565b111590506113196114b8565b80156113225750805b91505090565b6000828201838110156108d657fe5b6040805160208082526024908201527f666f7277617264696e672066756e647320746f20726566756e6461626c652076818301527f61756c7400000000000000000000000000000000000000000000000000000000606082015290517f47af8c4076c54a76f613f82e4296a2c5e2167698d368157a82e62398393e345e9181900360800190a16113c56114e8565b565b6113cf610d46565b1561144457600960009054906101000a9004600160a060020a0316600160a060020a03166343d726d66040518163ffffffff1660e060020a028152600401600060405180830381600087803b15801561142757600080fd5b505af115801561143b573d6000803e3d6000fd5b505050506114b0565b600960009054906101000a9004600160a060020a0316600160a060020a0316638c52dc416040518163ffffffff1660e060020a028152600401600060405180830381600087803b15801561149757600080fd5b505af11580156114ab573d6000803e3d6000fd5b505050505b6113c56113c5565b600080600060015442101580156114d157506002544211155b9150503415158180156114e15750805b9250505090565b600954604080517ff340fa010000000000000000000000000000000000000000000000000000000081523360048201529051600160a060020a039092169163f340fa01913491602480830192600092919082900301818588803b15801561154e57600080fd5b505af1158015611562573d6000803e3d6000fd5b50505050505600a165627a7a72305820955755287cf824ffe179aba6d9d5e5db3c2354a44ebdd3bfbbdca6ea13a9f2bd0029608060405234801561001057600080fd5b506040516020806105fe833981016040525160008054600160a060020a03191633179055600160a060020a038116151561004957600080fd5b60028054600160a060020a031916600160a060020a03929092169190911760a060020a60ff021916905561057c806100826000396000f3006080604052600436106100985763ffffffff7c010000000000000000000000000000000000000000000000000000000060003504166343d726d6811461009d578063521eb273146100b45780638c52dc41146100e55780638da5cb5b146100fa578063c19d93fb1461010f578063cb13cddb14610148578063f2fde38b1461017b578063f340fa011461019c578063fa89401a146101b0575b600080fd5b3480156100a957600080fd5b506100b26101d1565b005b3480156100c057600080fd5b506100c96102a7565b60408051600160a060020a039092168252519081900360200190f35b3480156100f157600080fd5b506100b26102b6565b34801561010657600080fd5b506100c9610340565b34801561011b57600080fd5b5061012461034f565b6040518082600281111561013457fe5b60ff16815260200191505060405180910390f35b34801561015457600080fd5b50610169600160a060020a036004351661035f565b60408051918252519081900360200190f35b34801561018757600080fd5b506100b2600160a060020a0360043516610371565b6100b2600160a060020a0360043516610405565b3480156101bc57600080fd5b506100b2600160a060020a0360043516610485565b600054600160a060020a031633146101e857600080fd5b60006002805460a060020a900460ff169081111561020257fe5b1461020c57600080fd5b6002805474ff00000000000000000000000000000000000000001916740200000000000000000000000000000000000000001790556040517f1cdde67b72a90f19919ac732a437ac2f7a10fc128d28c2a6e525d89ce5cd9d3a90600090a1600254604051600160a060020a0390911690303180156108fc02916000818181858888f193505050501580156102a4573d6000803e3d6000fd5b50565b600254600160a060020a031681565b600054600160a060020a031633146102cd57600080fd5b60006002805460a060020a900460ff16908111156102e757fe5b146102f157600080fd5b6002805474ff0000000000000000000000000000000000000000191660a060020a1790556040517f599d8e5a83cffb867d051598c4d70e805d59802d8081c1c7d6dffc5b6aca2b8990600090a1565b600054600160a060020a031681565b60025460a060020a900460ff1681565b60016020526000908152604090205481565b600054600160a060020a0316331461038857600080fd5b600160a060020a038116151561039d57600080fd5b60008054604051600160a060020a03808516939216917f8be0079c531659141344cd1fd0a4f28419497f9722a3daafe3b4186f6b6457e091a36000805473ffffffffffffffffffffffffffffffffffffffff1916600160a060020a0392909216919091179055565b600054600160a060020a0316331461041c57600080fd5b60006002805460a060020a900460ff169081111561043657fe5b1461044057600080fd5b600160a060020a038116600090815260016020526040902054610469903463ffffffff61053a16565b600160a060020a03909116600090815260016020526040902055565b600060016002805460a060020a900460ff16908111156104a157fe5b146104ab57600080fd5b50600160a060020a038116600081815260016020526040808220805490839055905190929183156108fc02918491818181858888f193505050501580156104f6573d6000803e3d6000fd5b50604080518281529051600160a060020a038416917fd7dee2702d63ad89917b6a4da9981c90c4d24f8c2bdfd64c604ecae57d8d0651919081900360200190a25050565b60008282018381101561054957fe5b93925050505600a165627a7a72305820898405501f90ef951dffc8c5212f8252eab5726db56af8a8af582f6f1d6cfb4200296003805460a060020a60ff021916905560c0604052600b60808190527f48656c6c6f20546f6b656e00000000000000000000000000000000000000000060a090815261004e91600491906100b8565b506040805180820190915260028082527f48540000000000000000000000000000000000000000000000000000000000006020909201918252610093916005916100b8565b506006805460ff1916601217905560038054600160a060020a03191633179055610153565b828054600181600116156101000203166002900490600052602060002090601f016020900481019282601f106100f957805160ff1916838001178555610126565b82800160010185558215610126579182015b8281111561012657825182559160200191906001019061010b565b50610132929150610136565b5090565b61015091905b80821115610132576000815560010161013c565b90565b610bf7806101626000396000f3006080604052600436106100e55763ffffffff7c010000000000000000000000000000000000000000000000000000000060003504166305d2035b81146100ea57806306fdde0314610113578063095ea7b31461019d57806318160ddd146101c157806323b872dd146101e8578063313ce5671461021257806340c10f191461023d578063661884631461026157806370a08231146102855780637d64bcb4146102a65780638da5cb5b146102bb57806395d89b41146102ec578063a9059cbb14610301578063d73dd62314610325578063dd62ed3e14610349578063f2fde38b14610370575b600080fd5b3480156100f657600080fd5b506100ff610393565b604080519115158252519081900360200190f35b34801561011f57600080fd5b506101286103b4565b6040805160208082528351818301528351919283929083019185019080838360005b8381101561016257818101518382015260200161014a565b50505050905090810190601f16801561018f5780820380516001836020036101000a031916815260200191505b509250505060405180910390f35b3480156101a957600080fd5b506100ff600160a060020a0360043516602435610442565b3480156101cd57600080fd5b506101d66104a8565b60408051918252519081900360200190f35b3480156101f457600080fd5b506100ff600160a060020a03600435811690602435166044356104ae565b34801561021e57600080fd5b50610227610627565b6040805160ff9092168252519081900360200190f35b34801561024957600080fd5b506100ff600160a060020a0360043516602435610630565b34801561026d57600080fd5b506100ff600160a060020a036004351660243561074c565b34801561029157600080fd5b506101d6600160a060020a036004351661083c565b3480156102b257600080fd5b506100ff610857565b3480156102c757600080fd5b506102d06108fd565b60408051600160a060020a039092168252519081900360200190f35b3480156102f857600080fd5b5061012861090c565b34801561030d57600080fd5b506100ff600160a060020a0360043516602435610967565b34801561033157600080fd5b506100ff600160a060020a0360043516602435610a4a565b34801561035557600080fd5b506101d6600160a060020a0360043581169060243516610ae3565b34801561037c57600080fd5b50610391600160a060020a0360043516610b0e565b005b60035474010000000000000000000000000000000000000000900460ff1681565b6004805460408051602060026001851615610100026000190190941693909304601f8101849004840282018401909252818152929183018282801561043a5780601f1061040f5761010080835404028352916020019161043a565b820191906000526020600020905b81548152906001019060200180831161041d57829003601f168201915b505050505081565b336000818152600260209081526040808320600160a060020a038716808552908352818420869055815186815291519394909390927f8c5be1e5ebec7d5bd14f71427d1e84f3dd0314c0f7b2291e5b200ac8c7c3b925928290030190a350600192915050565b60005481565b6000600160a060020a03831615156104c557600080fd5b600160a060020a0384166000908152600160205260409020548211156104ea57600080fd5b600160a060020a038416600090815260026020908152604080832033845290915290205482111561051a57600080fd5b600160a060020a038416600090815260016020526040902054610543908363ffffffff610ba316565b600160a060020a038086166000908152600160205260408082209390935590851681522054610578908363ffffffff610bb516565b600160a060020a0380851660009081526001602090815260408083209490945591871681526002825282812033825290915220546105bc908363ffffffff610ba316565b600160a060020a03808616600081815260026020908152604080832033845282529182902094909455805186815290519287169391927fddf252ad1be2c89b69c2b068fc378daa952ba7f163c4a11628f55a4df523b3ef929181900390910190a35060019392505050565b60065460ff1681565b600354600090600160a060020a0316331461064a57600080fd5b60035474010000000000000000000000000000000000000000900460ff161561067257600080fd5b600054610685908363ffffffff610bb516565b6000908155600160a060020a0384168152600160205260409020546106b0908363ffffffff610bb516565b600160a060020a038416600081815260016020908152604091829020939093558051858152905191927f0f6798a560793a54c3bcfe86a93cde1e73087d944c0ea20544137d412139688592918290030190a2604080518381529051600160a060020a038516916000917fddf252ad1be2c89b69c2b068fc378daa952ba7f163c4a11628f55a4df523b3ef9181900360200190a350600192915050565b336000908152600260209081526040808320600160a060020a0386168452909152812054808311156107a157336000908152600260209081526040808320600160a060020a03881684529091528120556107d6565b6107b1818463ffffffff610ba316565b336000908152600260209081526040808320600160a060020a03891684529091529020555b336000818152600260209081526040808320600160a060020a0389168085529083529281902054815190815290519293927f8c5be1e5ebec7d5bd14f71427d1e84f3dd0314c0f7b2291e5b200ac8c7c3b925929181900390910190a35060019392505050565b600160a060020a031660009081526001602052604090205490565b600354600090600160a060020a0316331461087157600080fd5b60035474010000000000000000000000000000000000000000900460ff161561089957600080fd5b6003805474ff00000000000000000000000000000000000000001916740100000000000000000000000000000000000000001790556040517fae5184fba832cb2b1f702aca6117b8d265eaf03ad33eb133f19dde0f5920fa0890600090a150600190565b600354600160a060020a031681565b6005805460408051602060026001851615610100026000190190941693909304601f8101849004840282018401909252818152929183018282801561043a5780601f1061040f5761010080835404028352916020019161043a565b6000600160a060020a038316151561097e57600080fd5b3360009081526001602052604090205482111561099a57600080fd5b336000908152600160205260409020546109ba908363ffffffff610ba316565b3360009081526001602052604080822092909255600160a060020a038516815220546109ec908363ffffffff610bb516565b600160a060020a0384166000818152600160209081526040918290209390935580518581529051919233927fddf252ad1be2c89b69c2b068fc378daa952ba7f163c4a11628f55a4df523b3ef9281900390910190a350600192915050565b336000908152600260209081526040808320600160a060020a0386168452909152812054610a7e908363ffffffff610bb516565b336000818152600260209081526040808320600160a060020a0389168085529083529281902085905580519485525191937f8c5be1e5ebec7d5bd14f71427d1e84f3dd0314c0f7b2291e5b200ac8c7c3b925929081900390910190a350600192915050565b600160a060020a03918216600090815260026020908152604080832093909416825291909152205490565b600354600160a060020a03163314610b2557600080fd5b600160a060020a0381161515610b3a57600080fd5b600354604051600160a060020a038084169216907f8be0079c531659141344cd1fd0a4f28419497f9722a3daafe3b4186f6b6457e090600090a36003805473ffffffffffffffffffffffffffffffffffffffff1916600160a060020a0392909216919091179055565b600082821115610baf57fe5b50900390565b600082820183811015610bc457fe5b93925050505600a165627a7a7230582085fd214cf1b40e70b34aca988a455bc215e2c20cf41b4d97f3ffcaee5ff81dce0029",
  "source": "pragma solidity ^0.4.18;\n\nimport './HelloToken.sol';\nimport 'zeppelin-solidity/contracts/crowdsale/CappedCrowdsale.sol';\nimport 'zeppelin-solidity/contracts/crowdsale/RefundableCrowdsale.sol';\nimport 'zeppelin-solidity/contracts/token/PausableToken.sol';\n\ncontract HelloTokenCrowdSale is CappedCrowdsale, RefundableCrowdsale {\n    struct record{\n        uint noEthR;\n        uint noTokenS;\n        uint noWei;\n        bool isWithdraw;\n        uint freezeEnd;\n    }\n    struct roundinfo{\n        uint _hardcap;\n        uint _Rstartdate;\n        uint _Renddate;\n        uint _totalTokenSended;\n        uint _amountReceived;\n    }\n    address manager;\n    mapping(address=>record) Records;\n    address[] public sender;\n    mapping(uint=>roundinfo) roundInfo;\n\n    uint public rate = 0;\n    uint public totalRounds;\n    uint public currentRound=0;\n    bool public isSale;\n    bool public isRoundActive;\n    uint public softCap;\n    uint public hardCap;\n\n\n\n // Token Distribution\n  // =============================\n  uint256 public maxTokens = 398320000e18; // There will be total 100 Hashnode Tokens\n  uint256 public tokensForEcosystem = 365000000e18;\n  uint256 public totalTokensForSale = 365000000e18;\n  uint256 public tokensForTeam = 13520000e18;\n  uint256 public tokensForALB = 19800000e18;\n  //uint256 public totalTokensForSale = 60000000000000000000; // 60 HTs will be sold in Crowdsale\n  //uint256 public totalTokensForSaleDuringPreICO = 20000000000000000000; // 20 out of 60 HTs will be sold during PreICO\n  // ==============================\n\n\n\n\n  // Events\n  event EthTransferred(string text);\n  event EthRefunded(string text);\n\n\n  // Constructor\n  // ============\n  function HelloTokenCrowdSale(uint256 _startTime, uint256 _endTime, uint256 _rate, address _wallet, uint256 _goal, uint256 _cap,uint _totalRounds) CappedCrowdsale(_cap) FinalizableCrowdsale() RefundableCrowdsale(_goal) Crowdsale(_startTime, _endTime, _rate, _wallet) public {\n      require(_goal <= _cap);\n        totalRounds=_totalRounds;\n        isSale=true;\n        rate=_rate;\n        softCap=_cap;\n        hardCap=_goal;\n        manager=msg.sender;\n  }\n  // =============\n\n  // Token Deployment\n  // =================\n  function createTokenContract() internal returns (MintableToken) {\n    return new HelloToken(); // Deploys the ERC20 token. Automatically called when crowdsale contract is deployed\n  }\n  // ==================\n\n  \n\n\nfunction getCurrentRound() public view returns(uint){\n        return currentRound;\n    }\n\n\nfunction startRound(uint hardcap)public onlyOwner returns(uint) {\n        require(isSale==true);\n        require(currentRound<totalRounds);\n        require(isRoundActive==false);\n     //   require(now >= startDate && now <= endDate);\n        currentRound++;\n        isRoundActive=true;\n        roundInfo[currentRound]._hardcap=hardcap;     \n        roundInfo[currentRound]._Rstartdate=now;\n        roundInfo[currentRound]._Renddate=0;\n        roundInfo[currentRound]._totalTokenSended=0;\n        roundInfo[currentRound]._amountReceived=0;\n        \n        return currentRound;\n    }\n\n    function displayRoundInfo(uint a) public onlyOwner constant returns (uint,uint,uint,uint,uint){\n        return (\n                roundInfo[a]._hardcap,\n                roundInfo[a]._Rstartdate,\n                roundInfo[a]._Renddate,\n                roundInfo[a]._totalTokenSended,\n                roundInfo[a]._amountReceived\n              );\n    }\n\n    function endRound() internal returns(bool){\n        require(isRoundActive==true);\n        roundInfo[currentRound]._Renddate=now;\n        isRoundActive=false;\n        return true;\n    }\n    function endRoundOwner() public onlyOwner returns(bool){\n        require(isRoundActive==true);\n        roundInfo[currentRound]._Renddate=now;\n        isRoundActive=false;\n        return true;\n    }\n    function currentSatus()public onlyOwner view returns(bool){\n        if(isRoundActive==true){\n            return true;\n        }\n    }\n     function hardcapAchieved(uint sendamountNsended)public returns(bool){\n        if(roundInfo[currentRound]._hardcap<sendamountNsended){\n            endRound();\n            return true;\n        }else\n            return false;\n    }\n    function endICO(uint sendedTotalAmount) public onlyOwner returns(bool){\n        require(isRoundActive==false);\n        require(currentRound==totalRounds);\n        isSale=false;\n        if(softCap < sendedTotalAmount) return true;\n        else return false;\n    }\n// Token Purchase\n  // =========================\n  function () external payable {\n    uint256 tokensThatWillBeMintedAfterPurchase = msg.value.mul(rate);\n       //require(now >= startDate && now <= endDate);\n        require(isRoundActive==true);\n        require(isSale==true);\n        require(!hardcapAchieved(roundInfo[currentRound]._totalTokenSended+tokensThatWillBeMintedAfterPurchase));\n       uint etherValue = msg.value/(1 ether);\n\n      if ((token.totalSupply() + tokensThatWillBeMintedAfterPurchase) > tokensForEcosystem) {\n        msg.sender.transfer(msg.value); // Refund them\n        emit EthRefunded(\"PreICO Limit Hit\");\n        return;\n      }\n\n      buyTokens(msg.sender);\n\n      roundInfo[currentRound]._totalTokenSended+=tokensThatWillBeMintedAfterPurchase;\n      roundInfo[currentRound]._amountReceived+=msg.value;\n       \n        Records[msg.sender].noEthR+=etherValue;\n        Records[msg.sender].noWei+=msg.value;\n        Records[msg.sender].noTokenS+=tokensThatWillBeMintedAfterPurchase;\n        Records[msg.sender].isWithdraw=false;\n        Records[msg.sender].freezeEnd=endTime+2678400;\n        sender.push(msg.sender);\n  }\n\n  function forwardFunds() internal {\n\n          emit EthTransferred(\"forwarding funds to refundable vault\");\n          super.forwardFunds();\n  }\n  // ===========================\nfunction showRecords() public constant returns (uint,uint,bool,address[]){\n            return (Records[msg.sender].noEthR,\n                    Records[msg.sender].noTokenS,\n                    Records[msg.sender].isWithdraw,\n                    sender);\n        }\nfunction viewContractBalance() public onlyOwner constant returns(uint,uint){\n        uint totalEther = address(this).balance/(1 ether);\n\t    return (totalEther,address(this).balance);\n\t}\n\n  function withdrawEther(uint amount) public onlyOwner{\n\t    uint eth = amount/(1 ether);\n\t\tmanager.transfer(amount);\n\t\tRecords[manager].noWei-=amount;\n\t\tRecords[manager].noEthR-=eth;\n\t\tRecords[manager].isWithdraw=true;\n\t}\n  // Finish: Mint Extra Tokens as needed before finalizing the Crowdsale.\n  // ====================================================================\n\n  function finish(address _teamFund, address _ALBFund) public onlyOwner {\n\n      require(!isFinalized);\n      uint256 alreadyMinted = token.totalSupply();\n      require(alreadyMinted < maxTokens);\n\n      uint256 unsoldTokens = totalTokensForSale - alreadyMinted;\n      if (unsoldTokens > 0) {\n        tokensForEcosystem = tokensForEcosystem + unsoldTokens;\n      }\n\n      token.mint(_teamFund,tokensForTeam);\n      token.mint(_ALBFund,tokensForALB);\n      finalize();\n  }\n  // ===============================\n\n  // REMOVE THIS FUNCTION ONCE YOU ARE READY FOR PRODUCTION\n  // USEFUL FOR TESTING `finish()` FUNCTION\n  function hasEnded() public view returns (bool) {\n    return true;\n  }\n}",
  "sourcePath": "/Users/harsh/Desktop/Internship/ICO/contracts/HelloTokenCrowdSale.sol",
  "compiler": {
    "name": "solc",
    "version": "0.4.25+commit.59dbf8f1.Emscripten.clang"
  },
  "schemaVersion": "2.0.2",
  "updatedAt": "2019-02-23T11:29:00.329Z"
}